:100000000C945D000C9485000C9485000C94850084
:100010000C9485000C9485000C9485000C9485004C
:100020000C9485000C9485000C9485000C9485003C
:100030000C9485000C9485000C9485000C9485002C
:100040000C94A9020C9485000C9477020C94510234
:100050000C9485000C9485000C9485000C9485000C
:100060000C9485000C9485000000000024002700FB
:100070002A0000000000250028002B0004040404CE
:100080000404040402020202020203030303030342
:10009000010204081020408001020408102001021F
:1000A00004081020000000080002010000030407FB
:1000B0000000000000000000C60311241FBECFEFA7
:1000C000D8E0DEBFCDBF11E0A0E0B1E0E6EFF7E0A1
:1000D00002C005900D92AC34B107D9F721E0ACE431
:1000E000B1E001C01D92A33FB207E1F710E0CDE5FA
:1000F000D0E004C02197FE010E94F303CC35D10764
:10010000C9F70E94F3020C94F9030C940000E1EB90
:10011000F0E02491EDE9F0E09491E9E8F0E0E49179
:10012000EE23C9F0222339F0233001F1A8F4213065
:1001300019F1223029F1F0E0EE0FFF1FEE58FF4FCA
:10014000A591B4912FB7F894EC91811126C09095A8
:100150009E239C932FBF08952730A9F02830C9F023
:10016000243049F7209180002F7D03C0209180002A
:100170002F7720938000DFCF24B52F7724BDDBCFEE
:1001800024B52F7DFBCF2091B0002F772093B000B6
:10019000D2CF2091B0002F7DF9CF9E2BDACFAF9236
:1001A000BF92CF92DF92EF92FF920F931F93CF9364
:1001B000DF936C017B018B01040F151FEB015E01C6
:1001C000AE18BF08C017D10759F06991D601ED915B
:1001D000FC910190F081E02DC6010995892B79F7FA
:1001E000C501DF91CF911F910F91FF90EF90DF90AC
:1001F000CF90BF90AF900895FC01538D448D252F73
:1002000030E0842F90E0821B930B541710F0CF96B0
:10021000089501970895FC01918D828D981761F0E2
:10022000A28DAE0FBF2FB11D5D968C91928D9F5FF9
:100230009F73928F90E008958FEF9FEF0895FC01D8
:10024000918D828D981731F0828DE80FF11D858D8B
:1002500090E008958FEF9FEF0895FC01918D228D1E
:10026000892F90E0805C9F4F821B91098F739927A3
:10027000089586E591E00E942D0121E0892B09F483
:1002800020E0822F089580E090E0892B29F00E94E1
:10029000390181110C9400000895FC01A48DA80F70
:1002A000B92FB11DA35ABF4F2C91848D90E00196B8
:1002B0008F739927848FA689B7892C93A089B189D8
:1002C0008C91837080648C93938D848D981306C079
:1002D0000288F389E02D80818F7D80830895EF92DD
:1002E000FF920F931F93CF93DF93EC0181E0888FF0
:1002F0009B8D8C8D98131AC0E889F989808185FFC0
:1003000015C09FB7F894EE89FF896083E889F98961
:1003100080818370806480839FBF81E090E0DF9163
:10032000CF911F910F91FF90EF900895F62E0B8DB6
:1003300010E00F5F1F4F0F731127E02E8C8D8E1171
:100340000CC00FB607FCFACFE889F989808185FFD8
:10035000F5CFCE010E944D01F1CFEB8DEC0FFD2FBB
:10036000F11DE35AFF4FF0829FB7F8940B8FEA8993
:10037000FB8980818062CFCFCF93DF93EC01888DA2
:100380008823B9F0AA89BB89E889F9898C9185FD10
:1003900003C0808186FD0DC00FB607FCF7CF8C919E
:1003A00085FFF2CF808185FFEDCFCE010E944D0108
:1003B000E9CFDF91CF9108953FB7F8948091510133
:1003C00090915201A0915301B091540126B5A89B80
:1003D00005C02F3F19F00196A11DB11D3FBFBA2FD7
:1003E000A92F982F8827BC01CD01620F711D811D97
:1003F000911D42E0660F771F881F991F4A95D1F71C
:1004000008958F929F92AF92BF92CF92DF92EF9218
:10041000FF926B017C010E94DC014B015C01C11465
:10042000D104E104F104B9F00E94DC0168197909F2
:100430008A099B09683E73408105910580F321E09C
:10044000C21AD108E108F10888EE880E83E0981EF0
:10045000A11CB11CE4CFFF90EF90DF90CF90BF9034
:10046000AF909F908F900895CF93DF93FC01019000
:100470000020E9F73197AF01481B590BBC0186E515
:1004800091E00E94CF00EC0142E050E064E171E0B5
:1004900086E591E00E94CF008C0F9D1FDF91CF91E8
:1004A00008951F920F920FB60F9211242F933F932E
:1004B0004F935F936F937F938F939F93AF93BF936C
:1004C000EF93FF9386E591E00E944D01FF91EF913C
:1004D000BF91AF919F918F917F916F915F914F915C
:1004E0003F912F910F900FBE0F901F9018951F9264
:1004F0000F920FB60F9211242F938F939F93EF9328
:10050000FF93E0916601F09167018081E0916C01B9
:10051000F0916D0182FD1BC0908180916F018F5F12
:100520008F7320917001821741F0E0916F01F0E02C
:10053000EA5AFE4F958F80936F01FF91EF919F9143
:100540008F912F910F900FBE0F901F901895808163
:10055000F4CF1F920F920FB60F9211242F933F9357
:100560008F939F93AF93BF9380914D0190914E01D4
:10057000A0914F01B091500130914C0123E0230F25
:100580002D3758F50196A11DB11D20934C01809384
:100590004D0190934E01A0934F01B0935001809173
:1005A000510190915201A0915301B09154010196D3
:1005B000A11DB11D8093510190935201A09353014D
:1005C000B0935401BF91AF919F918F913F912F9123
:1005D0000F900FBE0F901F90189526E8230F0296DC
:1005E000A11DB11DD2CF789484B5826084BD84B53D
:1005F000816084BD85B5826085BD85B5816085BD1E
:1006000080916E00816080936E00109281008091D5
:10061000810082608093810080918100816080935D
:100620008100809180008160809380008091B10082
:1006300084608093B1008091B00081608093B000AD
:1006400080917A00846080937A0080917A00826041
:1006500080937A0080917A00816080937A00809103
:100660007A00806880937A001092C100EDE9F0E092
:100670002491E9E8F0E08491882399F090E0880FD4
:10068000991FFC01E859FF4FA591B491FC01EE5868
:10069000FF4F859194918FB7F894EC91E22BEC93F6
:1006A0008FBFE0916601F091670182E08083E09165
:1006B0006201F09163011082E0916401F0916501A3
:1006C0008FEC808310926E01E0916A01F0916B01D2
:1006D00086E08083E0916801F0916901808180610A
:1006E0008083E0916801F091690180818860808356
:1006F000E0916801F0916901808180688083E091D8
:100700006801F091690180818F7D808387E191E0AC
:100710000E943402C0E0D0E081E00E948700609136
:10072000000170910101072E000C880B990B0E94AB
:10073000010280E00E948700609100017091010138
:10074000072E000C880B990B0E940102809100017A
:100750009091010184369105A1F480915501811198
:1007600004C083E291E00E94340281E0809355014D
:10077000209791F20E943901882371F20E940000B3
:10078000CBCF8EE391E00E943402F2CFE6E5F1E0B8
:100790001382128288EE93E0A0E0B0E08483958318
:1007A000A683B78386E091E09183808385EC90E017
:1007B0009587848784EC90E09787868780EC90E02B
:1007C000918B808B81EC90E0938B828B82EC90E01C
:1007D000958B848B86EC90E0978B868B118E128E96
:1007E000138E148E0895EE0FFF1F0590F491E02DE7
:0607F0000994F894FFCF0C
:1007F600F401000000006F01CF00FC00BC012D01D8
:100806000B011F010D0A00434845434B494E472E35
:100816002E2E00464C41477B706174636865645FA9
:100826007468655F6669726D776172657D0053599C
:0C0836005354454D204C4F434B454400AB
:00000001FF
